:020000040800F2
:1000000000000120050300080B030008130300088B
:10001000370300083F0300086303000800000000E6
:10002000000000000000000000000000870300083E
:100030008F03000800000000970300089F030008DA
:10004000BD030008BD030008BD030008BD03000890
:10005000BD030008BD030008BD0300080D0600082D
:10006000BD030008BD030008BD030008BD03000870
:10007000BD030008BD030008BD030008BD03000860
:10008000BD030008BD030008BD0300080000000018
:10009000000000000000000000000000BD03000898
:1000A000BD030008BD030008BD030008BD03000830
:1000B000BD030008BD030008BD030008BD03000820
:1000C000BD030008BD030008BD030008BD03000810
:1000D000BD030008BD030008BD03000800000000C8
:1000E000BD030008BD030008BD03000800000000B8
:1000F000000000000000000000000000BD03000838
:1001000000000000BD030008BD030008BD03000897
:1001100000000000000000000000000000000000DF
:10012000BD030008BD030008BD030008BD030008AF
:10013000BD030008000000000000000000000000F7
:10014000000000000000000000000000BD030008E7
:10015000BD030008BD030008BD030008BD0300087F
:10016000BD030008BD0300080000000000000000FF
:10017000000000000000000000000000000000007F
:1001800000000000BD0300080000000000000000A7
:10019000BD03000880B596B000AF00F03FF94F4BAB
:1001A0007B6524E07B6D1A1D7A651B683B647B6D63
:1001B0001A1D7A651B68FB637B6D1A1D7A651B68C7
:1001C000BB633B6C7B63FB6B3B63BB6BFB623B6B5F
:1001D000BB6207E07A6B131D7B63BB6A191DB962B2
:1001E00012681A60FA6ABB6A9A42F3D800BF7B6D44
:1001F0003B4A9342D6D33B4B3B651AE03B6D1A1DFD
:100200003A651B68BB643B6D1A1D3A651B687B64CD
:10021000BB6C7B627B6C3B627B6AFB6104E0FB69CD
:100220001A1DFA6100221A603A6AFB699A42F6D8EE
:1002300000BF3B6D2C4A9342E0D300F0FDF83A1D1D
:1002400007F108031146184600F0D6F8274A284B54
:10025000D31A9B103B610023FB6007E0244AFB6834
:1002600052F823309847FB680133FB603A69FB681A
:100270009A42F3DC1F4A204BD31A9B103B610023A8
:10028000FB6007E01C4AFB6852F823309847FB6884
:100290000133FB603A69FB689A42F3DC00BFBB683C
:1002A0007A681146184600F073F9F864134A144B43
:1002B000D31A9B10BB61BB697B6108E07B69013B82
:1002C0000F4A52F8233098477B69013B7B617B6979
:1002D000002BF3DC00BFF86C00F088F8C4030008C2
:1002E000DC030008DC030008EC030008EC03000852
:1002F000EC030008EC030008EC030008EC03000822
:10030000EC0300082948004700BF80B400AF00BFDD
:10031000FDE71EF0040F0CBFEFF30880EFF3098038
:100320007146234A104700BF80B483B000AF7860A5
:10033000396000BFFDE780B400AF00BFFDE71EF0ED
:10034000040F0CBFEFF30880EFF309807146194AE0
:10035000104700BF80B483B000AF7860396000BF41
:10036000FDE71EF0040F0CBFEFF30880EFF30980E8
:100370007146114A104700BF80B483B000AF786067
:10038000396000BFFDE780B400AF00BFFDE780B477
:1003900000AF00BFFDE780B400AF00BFFDE780B451
:1003A00000AF00BFBD4680BC70470000950100084B
:1003B00029030008550300087903000880B400AF42
:0403C00000BFFDE796
:1003C400E00800080000002014000020E0080008F5
:1003D400000000100000001014000020180000208D
:0803E4000000001000000010F1
:1003EC0080B582B000AF786000F03CF880B483B088
:1003FC0000AF786039607B6801221A603B68034A61
:10040C001A6000BF0C37BD4680BC7047000000204E
:10041C0080B500AF00F02AF8024B034A9A6000BF87
:10042C0080BD00BF00ED00E00000000880B500AF0B
:10043C0000F028F800BF80BD80B400AFBFF34F8F31
:10044C0000BF064BDB6803F4E0620449044B134322
:10045C00CB60BFF34F8F00BF00BFFDE700ED00E0A6
:10046C000400FA0580B500AFFFF7E6FF80B400AFDB
:10047C00034B4FF000629A6000BFBD4680BC7047D2
:10048C0000ED00E080B487B000AF00233B61002397
:10049C007B610223FB600023BB6002237B60344B37
:1004AC009B6803F00C033B613B69082B11D03B6943
:1004BC00082B44D83B69002B03D03B69042B04D098
:1004CC003DE02C4B2C4A1A603DE02A4B2B4A1A601B
:1004DC0039E0274B5B689B0D03F00103BB60244B99
:1004EC005B6803F03F037B60BB68002B0CD0234A96
:1004FC007B68B2FBF3F31E4A52689209C2F30802FE
:10050C0002FB03F37B610BE01B4A7B68B2FBF3F34A
:10051C00174A52689209C2F3080202FB03F37B618B
:10052C00134B5B681B0C03F0030301335B00FB6094
:10053C007A69FB68B2FBF3F30E4A136003E00D4BD0
:10054C000D4A1A6000BF0A4B9B681B0903F00F038E
:10055C000B4AD35C3B61074B1A683B6922FA03F3E5
:10056C00044A136000BF1C37BD4680BC704700BFF7
:10057C0000380240080000200024F40000127A0029
:10058C00D008000880B582B000AF00F069F80020F8
:10059C0000F074F8012000F071F86E2000F06EF895
:1005AC000123FB71002301220021412000F0FCF803
:1005BC00022300220121422000F0F6F80E4BDB68EA
:1005CC000D4A43F00203D3600C4B1B680B4A23F01B
:1005DC00F0031360094B1A68FB791B01074913439D
:1005EC000B60054B1B68044A43F0020313600720A1
:1005FC0000F098F800BFFDE7003C014008380140CE
:10060C0080B582B000AF00220021412000F02EF90D
:10061C0000237B6002E07B6801337B607B680E4AC1
:10062C009342F8DD01220021412000F01FF9002344
:10063C003B6002E03B6801333B603B68064A9342F7
:10064C00F8DD064B5B69054A43F00203536100BFBA
:10065C000837BD4680BD00BF3F420F00003C014043
:10066C0080B400AF044B1B68034A43F001031360D2
:10067C0000BFBD4680BC70470038024080B485B0D6
:10068C0000AF0346FB71FB795B09FB73FB7903F04D
:10069C001F03BB73FB7B032B36D801A252F823F04C
:1006AC00BD060008D3060008E9060008FF0600088E
:1006BC00184B1B68BA7B012101FA02F21146154A4C
:1006CC000B43136021E0144B1B68BA7B012101FA28
:1006DC0002F21146104A0B43136016E00F4B1B68D5
:1006EC00BA7B012101FA02F211460C4A0B4313604A
:1006FC000BE00B4B1B68BA7B012101FA02F211468D
:10070C00074A0B43136000E000BF00BF1437BD461F
:10071C0080BC7047303802403438024040380240C8
:10072C004438024080B483B000AF0346FB71FB79C0
:10073C001F2B0AD8194B1B68FA79012101FA02F216
:10074C001146164A0B43136022E0FB791F2B0ED97E
:10075C00FB793F2B0BD8124B1B68FA79203A0121FD
:10076C0001FA02F211460E4A0B43136010E0FB79BA
:10077C003F2B0DD9FB795F2B0AD80A4B1B68FA79F2
:10078C00403A012101FA02F21146064A0B4313606A
:10079C0000BF0C37BD4680BC704700BF00E100E0D5
:1007AC0004E100E008E100E090B486B000AF04463C
:1007BC00084611461A462346FB710346BB710B468D
:1007CC007B7113463B71FB79413BFB75FB7D264AE4
:1007DC0052F823303B613B7903F00103FB733B7907
:1007EC005B08BB733B691B68BA795200032101FAA1
:1007FC0002F2D2431A403B691A603B691B68797953
:10080C00BA79520001FA02F21A433B691A603B6949
:10081C005B68BA79012101FA02F2D2431A403B69B2
:10082C005A603B695B68F97BBA7901FA02F21A43A8
:10083C003B695A603B69DB68BA795200032101FAC3
:10084C0002F2D2431A403B69DA603B69DB68B97B40
:10085C00BA79520001FA02F21A433B69DA6000BF1E
:10086C001837BD4690BC70470C00002080B485B092
:10087C0000AF0346FB710B46BB7113467B71FB79D2
:10088C00413BFB73FB7B0E4A52F82330BB60BB68C9
:10089C005B69BA79012101FA02F2D2431A40BB68B2
:1008AC005A61BB685B697979BA7901FA02F21A4329
:1008BC00BB685A6100BF1437BD4680BC704700BF8F
:1008CC000C000020000000000000000001020304E6
:0408DC0006070809FA
:1008E00014000020000000000024F400000002407A
:0408F00000040240BE
:040000050800019559
:00000001FF
